:020000040800F2
:1000000000000220710E0008F10D0008F50D000837
:10001000F90D0008FD0D0008010E000800000000A9
:10002000000000000000000000000000050E0008B5
:10003000090E0008000000000D0E0008110E000857
:10004000C10E0008C10E0008C10E0008C10E000854
:10005000C10E0008C10E0008C10E0008C10E000844
:10006000C10E0008C10E0008C10E0008C10E000834
:10007000C10E0008C10E0008C10E0008C10E000824
:10008000C10E0008C10E0008C10E0008C10E000814
:10009000C10E0008C10E0008C10E0008C10E000804
:1000A000C10E0008C10E0008C10E0008C10E0008F4
:1000B000C10E0008C10E0008C10E0008C10E0008E4
:1000C000C10E0008C10E0008C10E0008C10E0008D4
:1000D000C10E0008C10E0008C10E0008C10E0008C4
:1000E000C10E0008C10E0008C10E0008C10E0008B4
:1000F000C10E0008C10E0008C10E0008C10E0008A4
:10010000C10E0008C10E0008C10E0008C10E000893
:10011000C10E0008C10E0008C10E0008C10E000883
:10012000C10E0008C10E0008C10E0008C10E000873
:10013000C10E0008C10E0008C10E0008C10E000863
:10014000C10E0008C10E0008C10E0008C10E000853
:10015000C10E0008C10E0008C10E0008C10E000843
:10016000C10E0008C10E0008C10E0008C10E000833
:10017000C10E0008C10E0008C10E000800000000FA
:08018000C10E0008C10E0008C9
:1001900081F0004102E000BF83F0004330B54FEA38
:1001A00041044FEA430594EA050F08BF90EA020FA5
:1001B0001FBF54EA000C55EA020C7FEA645C7FEA38
:1001C000655C00F0E2804FEA5454D4EB5555B8BF5B
:1001D0006D420CDD2C4480EA020281EA030382EACC
:1001E000000083EA010180EA020281EA0303362D5E
:1001F00088BF30BD11F0004F4FEA01314FF4801C31
:100200004CEA113102D0404261EB410113F0004F42
:100210004FEA03334CEA133302D0524263EB4303F9
:1002200094EA050F00F0A780A4F10104D5F1200E97
:100230000DDB02FA0EFC22FA05F2801841F10001F2
:1002400003FA0EF2801843FA05F359410EE0A5F1C6
:1002500020050EF1200E012A03FA0EFC28BF4CF0F7
:10026000020C43FA05F3C01851EBE37101F00045AD
:1002700007D54FF0000EDCF1000C7EEB00006EEBBA
:100280000101B1F5801F1BD3B1F5001F0CD3490844
:100290005FEA30004FEA3C0C04F101044FEA44529B
:1002A00012F5800F80F09A80BCF1004F08BF5FEA22
:1002B000500C50F1000041EB045141EA050130BD02
:1002C0005FEA4C0C404141EB0101013C28BFB1F514
:1002D000801FE9D291F0000F04BF01460020B1FA5F
:1002E00081F308BF2033A3F10B03B3F120020CDA32
:1002F0000C3208DD02F1140CC2F10C0201FA0CF010
:1003000021FA02F10CE002F11402D8BFC2F1200C74
:1003100001FA02F120FA0CFCDCBF41EA0C0190402A
:10032000E41AA2BF01EB0451294330BD6FEA040473
:100330001F3C1CDA0C340EDC04F11404C4F120025E
:1003400020FA04F001FA02F340EA030021FA04F370
:1003500045EA030130BDC4F10C04C4F1200220FAC7
:1003600002F001FA04F340EA0300294630BD21FA05
:1003700004F0294630BD94F0000F83F4801306BFCB
:1003800081F480110134013D4EE77FEA645C18BFBF
:100390007FEA655C29D094EA050F08BF90EA020F56
:1003A00005D054EA000C04BF1946104630BD91EA4E
:1003B000030F1EBF0021002030BD5FEA545C05D151
:1003C0004000494128BF41F0004130BD14F5800490
:1003D0003CBF01F5801130BD01F0004545F0FE4104
:1003E00041F470014FF0000030BD7FEA645C1ABF39
:1003F000194610467FEA655C1CBF0B46024650EA70
:10040000013406BF52EA033591EA030F41F400219B
:1004100030BD00BF90F0000F04BF0021704730B521
:100420004FF4806404F132044FF000054FF00001F6
:1004300050E700BF90F0000F04BF0021704730B5B7
:100440004FF4806404F1320410F0004548BF40428C
:100450004FF000013EE700BF42004FEAE2014FEAE1
:1004600031014FEA02701FBF12F07F4393F07F4FBC
:1004700081F06051704732F07F4208BF704793F0BF
:100480007F4F04BF41F40021704730B54FF46074D2
:1004900001F0004521F000411CE700BF50EA0102D5
:1004A00008BF704730B54FF000050AE050EA01027E
:1004B00008BF704730B511F0004502D5404261EBEE
:1004C00041014FF4806404F132045FEA915C3FF42F
:1004D000D8AE4FF003025FEADC0C18BF03325FEACC
:1004E000DC0C18BF033202EBDC02C2F1200300FA7D
:1004F00003FC20FA02F001FA03FE40EA0E0021FAA2
:1005000002F11444BDE600BF4FF0FF3C06E000BF1F
:100510004FF0010C02E000BF4FF0010C4DF804CD8C
:100520004FEA410C7FEA6C5C4FEA430C18BF7FEA4C
:100530006C5C1BD001B050EA410C0CBF52EA430C7A
:1005400091EA030F02BF90EA020F0020704710F1FA
:10055000000F91EA030F58BF994208BF90422CBF89
:10056000D8176FEAE37040F0010070474FEA410C82
:100570007FEA6C5C02D150EA013C07D14FEA430CA0
:100580007FEA6C5CD6D152EA033CD3D05DF8040B11
:10059000704700BF8446104662468C461946634643
:1005A00000E000BF01B5FFF7B7FF002848BF10F11A
:1005B000000F01BD4DF808EDFFF7F4FF0CBF01205F
:1005C00000205DF808FB00BF4DF808EDFFF7EAFFDB
:1005D00034BF012000205DF808FB00BF4DF808ED96
:1005E000FFF7E0FF94BF012000205DF808FB00BF8B
:1005F0004DF808EDFFF7CEFF94BF012000205DF815
:1006000008FB00BF4DF808EDFFF7C4FF34BF012021
:1006100000205DF808FB00BF53B94AB9002908BFA4
:1006200000281CBF4FF0FF314FF0FF3000F00CB836
:10063000ADF1080C6DE904CE10F0D6FCDDF804E055
:10064000DDE9022304B07047704700BF00000000DE
:1006500001F0FF01102A2BDB10F0070F08D010F873
:10066000013B013A8B422DD010F0070F42B3F6D177
:10067000F0B441EA012141EA014122F007047FF090
:1006800000070023F0E80256083C85EA010586EAE7
:10069000010685FA47F5A3FA87F586FA47F6A5FA23
:1006A00087F68EB9EED1F0BC01F0FF0102F007022F
:1006B00032B110F8013B013A83EA010313B1F8D1DA
:1006C0000020704701387047002D06BF35460338BB
:1006D000073815F0010F07D1013015F4807F02BFF4
:1006E000013015F4C03F0130F0BC0138704700BF45
:1006F000034613F8012B002AFBD1181A0138704762
:1007000070B54FF0FF0C4CF4E06C1CEA11541DBFA7
:100710001CEA135594EA0C0F95EA0C0F00F0DEF872
:100720002C4481EA030621EA4C5123EA4C5350EA57
:10073000013518BF52EA033541F4801143F48013A8
:1007400038D0A0FB02CE4FF00005E1FB02E506F039
:100750000042E0FB03E54FF00006E1FB03569CF08E
:10076000000F18BF4EF0010EA4F1FF04B6F5007F94
:1007700064F5407404D25FEA4E0E6D4146EB060606
:1007800042EAC62141EA55514FEAC52040EA5E508F
:100790004FEACE2EB4F1FD0C88BFBCF5E06F1ED839
:1007A000BEF1004F08BF5FEA500E50F1000041EB70
:1007B000045170BD06F0004646EA010140EA02001D
:1007C00081EA0301B4EB5C04C2BFD4EB0C0541EA3F
:1007D000045170BD41F480114FF0000E013C00F354
:1007E000AB8014F1360FDEBF002001F0004170BD78
:1007F000C4F10004203C35DA0C341BDC04F1140491
:10080000C4F1200500FA05F320FA04F001FA05F21C
:1008100040EA020001F0004221F0004110EBD370E9
:1008200021FA04F642EB06015EEA430E08BF20EA15
:10083000D37070BDC4F10C04C4F1200500FA04F3B8
:1008400020FA05F001FA04F240EA020001F000414A
:1008500010EBD37041F100015EEA430E08BF20EABD
:10086000D37070BDC4F1200500FA05F24EEA020E05
:1008700020FA04F301FA05F243EA020321FA04F034
:1008800001F0004121FA04F220EA020000EBD370EB
:100890005EEA430E08BF20EAD37070BD94F0000FEB
:1008A0000FD101F00046400041EB010111F4801F1F
:1008B00008BF013CF7D041EA060195F0000F18BFD0
:1008C000704703F00046520043EB030313F4801F0C
:1008D00008BF013DF7D043EA0603704794EA0C0FC6
:1008E0000CEA135518BF95EA0C0F0CD050EA4106DC
:1008F00018BF52EA4306D1D181EA030101F0004159
:100900004FF0000070BD50EA410606BF1046194680
:1009100052EA430619D094EA0C0F02D150EA01368C
:1009200013D195EA0C0F05D152EA03361CBF1046CD
:1009300019460AD181EA030101F0004141F0FE416C
:1009400041F470014FF0000070BD41F0FE4141F4F0
:10095000780170BD70B54FF0FF0C4CF4E06C1CEAF0
:1009600011541DBF1CEA135594EA0C0F95EA0C0FA5
:1009700000F0A7F8A4EB050481EA030E52EA033560
:100980004FEA013100F088804FEA03334FF0805581
:1009900045EA131343EA12634FEA022245EA1115AE
:1009A00045EA10654FEA00260EF000419D4208BF5F
:1009B000964244F1FD0404F5407402D25B084FEA0C
:1009C0003202B61A65EB03055B084FEA32024FF4B8
:1009D00080104FF4002CB6EB020E75EB030E22BF15
:1009E000B61A754640EA0C005B084FEA3202B6EBD5
:1009F000020E75EB030E22BFB61A754640EA5C0084
:100A00005B084FEA3202B6EB020E75EB030E22BF13
:100A1000B61A754640EA9C005B084FEA3202B6EB14
:100A2000020E75EB030E22BFB61A754640EADC00D3
:100A300055EA060E18D04FEA051545EA16754FEA35
:100A400006164FEAC30343EA52734FEAC2025FEA53
:100A50001C1CC0D111F4801F0BD141EA00014FF0E2
:100A600000004FF0004CB6E711F4801F04BF0143B3
:100A70000020B4F1FD0C88BFBCF5E06F3FF6AFAECF
:100A8000B5EB030C04BFB6EB020C5FEA500C50F15F
:100A9000000041EB045170BD0EF0004E4EEA1131E2
:100AA00014EB5C04C2BFD4EB0C0541EA045170BDE9
:100AB00041F480114FF0000E013C90E645EA060E2D
:100AC0008DE60CEA135594EA0C0F08BF95EA0C0F5B
:100AD0003FF43BAF94EA0C0F0AD150EA01347FF4A3
:100AE00034AF95EA0C0F7FF425AF104619462CE77A
:100AF00095EA0C0F06D152EA03353FF4FDAE1046DD
:100B0000194622E750EA410618BF52EA43067FF42D
:100B1000C5AE50EA41047FF40DAF52EA43057FF4BD
:100B2000EBAE12E74FEA410C7FEA6C5C02D150EA6F
:100B3000013C0AD14FEA430C7FEA6C5C02D152EAD5
:100B4000033C02D14FF0000070474FF001007047A6
:100B50004FEA410212F5001215D211D56FF47873E5
:100B6000B3EB625212D94FEAC12343F0004343EA88
:100B7000505311F0004F23FA02F018BF4042704763
:100B80004FF00000704750EA013005D111F00040ED
:100B900008BF6FF0004070474FF00000704700BF83
:100BA0000348044B834202D0034B03B118477047FC
:100BB000DC010020DC010020000000000548064B9D
:100BC0001B1AD90F01EBA301491002D0034B03B14B
:100BD00018477047DC010020DC0100200000000005
:100BE00010B5064C237843B9FFF7DAFF044B13B175
:100BF0000448AFF300800123237010BDDC01002006
:100C000000000000B445010808B5054B1BB10549BB
:100C10000548AFF30080BDE80840FFF7CFBF00BF35
:100C200000000000E0010020B4450108094BD3F8A2
:100C3000FC20D20105D4D3F8FC2042F08072C3F826
:100C4000FC20054B00225A601A6842F001021A602B
:100C5000704700BF00ED00E0001000E008B500F0B4
:100C6000D3FC024B0021586808BD00BF001000E013
:100C700010B5002394B0CDE90A33CDE90C33CDE9AA
:100C80000333CDE90533214901930793086C204ACA
:100C900040F080500864096C01F080510191019985
:100CA0000293136843F480431360136801204FF4E8
:100CB000803103F48043CDE9080102934FF48001B1
:100CC0000224CDE90E41029804210220CDE912014F
:100CD0000422A82308A81092119300F0ABFA08B1DF
:100CE00072B6FEE70F220346CDE903244FF4A05C61
:100CF0004FF4805203A80521CDE9053C079200F08E
:100D0000B7FC08B172B6FEE714B010BD003802405F
:100D10000070004000B500248BB0FFF787FF00F0A3
:100D2000F9F8FFF7A5FFCDE90444CDE906441F4BD0
:100D3000019408941A6B1E4842F080021A63196BE2
:100D400001F08001019101990294196B41F00101B8
:100D50001963196B01F00101029102990394196B57
:100D600041F0080119631B6B03F00803224603934B
:100D70004FF47041039B00F059FA012200230D4803
:100D8000069404A9CDE9042300F04AF94FF4704217
:100D90000123074804A9CDE90423CDE9064400F066
:100DA0003FF913F08BFB0DF0A9FFFCE70038024080
:100DB000000C02400000024082B00C4B0021009168
:100DC0005A6C42F480425A645A6C02F48042009297
:100DD000009A01911A6C42F080521A641B6C03F065
:100DE00080530193019B02B0704700BF003802405E
:100DF000FEE700BFFEE700BFFEE700BFFEE700BF63
:100E0000FEE700BF704700BF704700BF704700BFDC
:100E100000F09AB80D490E4ADFF83CC008B50B68DF
:100E2000A2EB0C022BB11844904207D80860184678
:100E300008BD084B0B6018449042F7D911F0F4F943
:100E40000C2303604FF0FF33184608BDF801002063
:100E5000000002202814002000040000034AD2F8F9
:100E6000883043F47003C2F88830704700ED00E02A
:100E7000DFF834D0FFF7F2FF0C480D490D4A00238C
:100E800002E0D458C4500433C4188C42F9D30A4A3F
:100E90000A4C002301E013600432A242FBD311F09C
:100EA000C9F9FFF737FF704700000220000000205B
:100EB000DC01002004890108DC010020241400204A
:100EC000FEE7000010B5104B104A1B68127882B084
:100ED00004464FF47A70B0FBF2F0B3FBF0F000F090
:100EE00089F808B90F2C02D9012002B010BD0246C2
:100EF000019021464FF0FF3000F04AF8044B019872
:100F00001C6002B010BD00BF0000002004000020E3
:100F10000800002008B50B4B1A6842F400721A60F2
:100F20001A6842F480621A601A6842F480721A6089
:100F3000032000F01BF80F20FFF7C4FFFFF73CFF72
:100F4000002008BD003C0240034A044B11681B7896
:100F50000B441360704700BFFC0100200400002018
:100F6000014B1868704700BFFC0100200749CA68A0
:100F700003024FF6FF0003F4E0630240134343F023
:100F8000BF6343F40033CB60704700BF00ED00E067
:100F9000164BDB68C3F30223A3F1030CBCF1040F6F
:100FA00000B519D84FF0FF3EC3F107030EFA03F363
:100FB0000EFA0CFE22EA0E02DB43194001FA0CF194
:100FC000114300284FEA01110ADB00F1604000F5EF
:100FD000614080F8001300BD00220F239446ECE727
:100FE000034B00F00F00C318197600BD00ED00E0C0
:100FF000FCEC00E00138B0F1807F01D301207047A4
:101000004FF0E0230022586104484FF0F00C072114
:1010100080F823C09A6110461961704700ED00E026
:101020002DE9F04FD1F800C0DFF8FCA1764C87B075
:1010300000234FF0010B894603E00133102B00F031
:101040008A800BFA03F202EA0C0832EA0C02F4D1AD
:10105000D9F8041001F003055A006E1E03279740CB
:10106000012E01977AD9032D09D0C668019F26EA7F
:10107000070ED9F80860964046EA0E06C66005FAE3
:1010800002F2019E056825EA06052A4311F4403F55
:101090000260D2D000220592DAF8442042F4804265
:1010A000CAF84420DAF8442002F480420592059AF6
:1010B00023F0030202F1804202F59C3203F00306A2
:1010C0009568B6000F27B74025EA07054F4FB8428D
:1010D0001BD007F58067B84277D04D4FB84279D022
:1010E0004C4FB8427BD04C4FB8427DD04B4FB842AA
:1010F0007FD04B4FB84200F081804A4FB8420CBFBE
:101100000727082707FA06F635439560A268CF023D
:1011100054BF22EA080248EA0202A260E2688E0294
:1011200054BF22EA080248EA0202E26062688D03C4
:1011300054BF22EA080248EA020262602268C90338
:1011400003F1010354BF22EA080248EA0202102B0D
:1011500022607FF476AF07B0BDE8F08F866826EA9C
:10116000070ED9F80C60964046EA0E06866046687F
:1011700026EA080EC1F300169E4046EA0E064660B7
:10118000C66826EA070ED9F80860964046EA0E06B9
:10119000022DC6607FF473AFDE0800EB8606029670
:1011A000376AD9F81060039703F0070E4FEA8E0EE6
:1011B0000F2706FA0EF607FA0EFE039F27EA0E0E19
:1011C000029F46EA0E063E6259E7012707FA06F635
:1011D00035439AE7022707FA06F6354395E70327D2
:1011E00007FA06F6354390E7042707FA06F6354373
:1011F0008BE7052707FA06F6354386E7062707FA41
:1012000006F6354381E700BF003C01400000024084
:1012100000080240000C024000100240001402408E
:1012200000180240001C02400038024002B90904C4
:1012300081617047002800F06B8170B50368DD079D
:1012400082B0044630D59F498A6802F00C02042A15
:1012500000F0F1808A6802F00C02082A00F0E780B2
:101260006368B3F5803F00F0F080B3F5A02F00F085
:101270007C8194490A6822F480320A600A6822F468
:1012800080220A60002B40F0E580FFF769FE0546EA
:1012900005E0FFF765FE401B642800F20781894BDB
:1012A0001B689E03F5D423689D0729D5854A91685C
:1012B00011F00C0F00F09480916801F00C010829E6
:1012C00000F08A80E368002B00F011817E4B012240
:1012D0001A60FFF745FE054605E0FFF741FE401B9B
:1012E000022800F2E380774B1B689E07F5D575490D
:1012F00022690B6823F0F80343EAC2030B602368FA
:101300001A0754D45D0731D56E4A136C13F080531D
:1013100000F0818000266D4B1B68D80540F1B48039
:10132000A368012B00F0C580052B00F02E816549D4
:101330000A6F22F001020A670A6F22F004020A67AC
:10134000002B40F0BB80FFF70BFE054607E0FFF7E0
:1013500007FE41F28833401B984200F2A780594BA8
:101360001B6F9B07F3D4002E40F00981A369DBB10A
:10137000544A926802F00C02082A00F0CB80022B3B
:10138000514B4FF000021A6600F00981FFF7E8FDAB
:10139000044605E0FFF7E4FD001B022800F286800A
:1013A000484B1B689B01F5D4002002B070BD6369F7
:1013B00003B3454B0122C3F8802EFFF7D1FD05464C
:1013C00004E0FFF7CDFD401B02286FD83D4B5B6F5B
:1013D0009B07F6D5236895E7526851023FF572AF37
:1013E000384A1268920743D5E268012A40D00120AA
:1013F00002B070BD344AC2F8803EFFF7B1FD054629
:1014000004E0FFF7ADFD401B02284FD82D4B5B6F6A
:101410009E07F6D4DEE70193136C43F08053136408
:10142000136C03F080530193019B012673E74A6814
:1014300051027FF515AF234A126892037FF534AF4E
:101440006268002A7FF430AFD1E71E4A136843F484
:1014500080331360FFF784FD054604E0FFF780FD4D
:10146000401B642822D8174B1B689B03F6D51AE74C
:10147000144920690A6822F0F80242EAC0020A60B0
:101480001A077FF53FAF92E7104A136843F4807361
:101490001360FFF765FD05460C4B1B68D9053FF54A
:1014A0003FAFFFF75DFD401B0228F5D9032002B0D6
:1014B00070BD044A136F43F001031367FFF750FD3B
:1014C00005460CE000380240000047420070004032
:1014D000FFF746FD41F28833401B9842E6D8484B5F
:1014E0001B6F9A07F4D5002E3FF440AF47E0454A02
:1014F0001360FFF735FD054604E0FFF731FD401BA3
:101500000228D3D83E4B1B689907F6D42368F7E628
:1015100001207047012B3FF46AAF394BE2695B68E9
:1015200003F4800191427FF462AF226A03F03F012D
:1015300091427FF45CAF616A47F6C0721A40B2EB29
:10154000811F7FF454AFA26A520803F44031013A7C
:10155000B1EB024F7FF44BAFE26A03F07063B3EB81
:10156000026F14BF012000201FE7254B1A6842F4C8
:1015700080221A601A6842F480321A606AE7204AB0
:10158000136C23F080531364F0E61D4B1A6F42F086
:1015900004021A671A6F42F001021A678EE7FFF71A
:1015A000DFFC054605E0FFF7DBFC401B02283FF6A9
:1015B0007DAF134B1B689901F5D4D4E90731626AFA
:1015C0000B4343EA8213D4E90A2052080D490C4C1C
:1015D00043EA0063013A0A4843EA024301224360B6
:1015E0000A66FFF7BDFC054605E0FFF7B9FC401BA6
:1015F00002283FF65BAF23689A01F6D5D4E600BF18
:101600000038024000004742164908B58B6803F0D5
:101610000C03042B1BD0082B01D0134808BD4A68CB
:101620004B68496813F4800302F03F0211D10E4861
:10163000C1F38811A1FB0001FEF7EEFF094B5B68C7
:10164000C3F3014301335B00B0FBF3F008BD07486F
:1016500008BD0648C1F388110023A1FB0001FEF775
:10166000DBFFEBE7003802400024F40000127A00B0
:1016700058B1474A136803F007038B4207D2117031
:10168000136803F007038B4201D001207047036801
:101690009A072DE9F04114D55F0704D53D4CA268A7
:1016A00042F4E052A2601E0704D53A4CA26842F40C
:1016B0006042A260374C8568A26822F0F0022A439B
:1016C000A260DD078846074621D54268012A58D026
:1016D000931E012B2F4B1B6850D9990724D52D4CF5
:1016E000A36823F003031343A360FFF739FC41F21F
:1016F0008835064604E0FFF733FC801BA84245D836
:10170000A3687A6803F00C03B3EB820FF3D1204A8D
:10171000136803F00703434509D982F80080126873
:1017200002F00702424502D00120BDE8F0813B688B
:101730005A0706D51749F8688A6822F4E05202432E
:101740008A601B0707D5134A3969936823F46043FD
:1017500043EAC1039360FFF757FF0E4A0E4C9268AD
:101760000E49C2F303120346A25C0D48D340006841
:101770000B60FFF7A7FB0020BDE8F0819801AED415
:10178000D2E7044B1B689C03A9D4CDE70320CCE728
:10179000003C024000380240CC4C01080000002010
:1017A000080000202DE9F84F324D2B7883460E4675
:1017B0009146002B39D0304CB9F1000F32D0734232
:1017C000C3F30B03C6F30B0258BF5A42C2F5805253
:1017D000636821685B1A9342FAD823686568C3F38B
:1017E0000B08C5F30B05A845CCBFA8EB050AC5F54A
:1017F000805AB245214B5746A8BF37463A4658193A
:10180000594610F03EFD7A196568B2F5805F3D4497
:1018100001D1B2451ADBB9F1000F15D16560384628
:10182000BDE8F88F40F6FF72D2E7134C03F0FF07D4
:1018300001232B704FF48053114D2360284621461D
:10184000ABBE27606760B7E7A560E7E7F61B4645D4
:10185000A8BF464609480BEB0701324610F011FDC0
:101860003544B9F1000F00D0A560374465603846B3
:10187000BDE8F88F050200200802002014020020B5
:10188000535953502DE9F04182B0002A3FD0DFF880
:10189000C8801F46D8F800300133C8F800302B4B01
:1018A0001B7800F07F04A3420E46154615D0284A47
:1018B000536892689B1AFF2B39D9264A93422BD83A
:1018C00043EA046343F400030122042168460093C1
:1018D000FFF768FFB0B11D4B1C70002401E0A5426A
:1018E00007D0291B30190022FFF75CFF0444002FAA
:1018F000F5D1D8F800302046013BC8F8003002B0DE
:10190000BDE8F081D8F80030013BC8F80030002471
:10191000204602B0BDE8F08123F0004301220521FA
:10192000684600938DF80440FFF73CFFD2E743EA96
:1019300004236FEA43436FEA5343012202216846BE
:10194000ADF80030FFF72EFFC4E700BF040200200F
:1019500008020020FEFF7F000002002010B50123D6
:10196000144600F00F00FFF78DFF204610BD00BFAA
:1019700070B51B4CD4F804E0D4F800C082B0AEEBD4
:101980000C04B4F5805F069C9ABF0CF5805CACEB50
:101990000E0C4FF0000C1419644506D8DFF844C053
:1019A000DCF800C0BCF1000F02D0002002B070BD16
:1019B0001E46012301920546FFF764FF019A824209
:1019C00000D0FFBE0123069A31462846FFF75AFF92
:1019D000069B834200D0FFBE204602B070BD00BF10
:1019E0000802002000020020044A536843F000432C
:1019F00053605368002BFCDB704700BF08020020D7
:101A000070B5124C207886B00E46154658B1104C71
:101A10001022012322606360A660E560FFF7E4FF07
:101A2000606806B070BD0B4A00F0FF0307CA0DF1F5
:101A30000C0C00938CE8070061460C224620FFF74F
:101A400097FF2378002BFCD0E1E700BF2412002091
:101A500014120020D0450108034A136803B1184747
:101A6000024B1360184700BF28120020751A0008A7
:101A70000120704710B5054C2368996810F054FA9E
:101A80002368BDE81040986810F044B918000020A1
:101A900000B5A7B0CDE9040168B10146134681EA5B
:101AA000E170A0EBE170B0FA80FCBCF1020F05D14F
:101AB000B0F1804F11D2012027B000BD059A0292EB
:101AC000CDE9001C0A4A802106A810F053FA06A8A6
:101AD000FFF7C2FF002027B000BD0090054A80211B
:101AE00006A810F047FA06A8FFF7B6FFF2E700BF16
:101AF000DC4C0108084D0108002B57D000295FD0AD
:101B000082B070B583EA010E81EAE17CACEBE17C46
:101B100083EAE371A1EBE3718C00A4B2C1F38F31CE
:101B2000BCFBF1F505FB11C305FB04F6B6EB034F57
:101B30004FEA034C0AD90B44361BB6EB034F4FEA6E
:101B4000034C92BF05F1FF35023D361BACEB060C92
:101B5000BCFBF1F303FB11CC03FB04F6B6EB0C4F1B
:101B600007D96144361BB6EB014F94BF03F1FF3335
:101B7000023B069943EA0543521A590052BFA2F1AB
:101B80001E015B08A2F11D0101F30701BEF1000F68
:101B900005DBBDE87040C0E9003102B07047BDE828
:101BA00070405B42C0E9003102B070479942B4BF57
:101BB0004FF060434FF000537F21C0E90031704780
:101BC0000B46FAE7034690B1012909DC83EAE3708A
:101BD000A0EBE37000290EDB8840002B09DB704787
:101BE0000028D4BF00230123C3F100407047002028
:101BF00070474042704711F11E0FF8DB4942C84060
:101C0000EBE700BFB8B180EAE073A3EBE0739C316F
:101C1000FE290BDC00290EDD00F0004040EAC15037
:101C2000C3F39613034300EE103A7047002805DD16
:101C30009FED040A70479FED040A70479FED030A69
:101C4000704700BFFFFF7F7F00000000FFFF7FFFA6
:101C5000012070470120704700B5802383B003F353
:101C600007037F2B0CBF0121002142D14FF000530D
:101C700083EAE372A2EBE372B2FA82F2931E002BC4
:101C800023DDC3F1C80303F307037F2B0CBF01233C
:101C9000002326D119404FF0005383EAE372A2EBF0
:101CA000E372B2FA82F2901E002813DD6FF0C703D0
:101CB0001B1A03F3070313F1800F0CBF012300234A
:101CC0001DD103EA010003B000BD14BFC2F1CA0375
:101CD000C823D8E71ABF6FF0C5039B1A6FF0C7037C
:101CE000E7E70C48CDE90013FFF7B6FEDDE9001386
:101CF000D0E709480091FFF7AFFE0099B6E7074823
:101D0000CDE90031FFF7A8FEDDE9003103EA01006B
:101D100003B000BD484D0108304D01086C4D01086D
:101D200010B5134682B00A46044619461046019380
:101D3000FFF748FF019948B380EAE073A3EBE07333
:101D4000B3FA83FEAEF1020CBCF1000F23DD03FAFF
:101D50000CF3CEF1020C0CF3070C0028B8BF5B4269
:101D6000A3B1F2B1A1EB0C001E280FDC10F11E0F85
:101D700017DB00281CD1D21A57D082EAE273A3EBFA
:101D8000E27303F0C040B0F1005F35D12046C4E9F2
:101D9000002102B010BD1CBFCEF1020C23FA0CF3DF
:101DA000D9E75A4261462046C4E9002102B010BD7D
:101DB00040DD0341D21AC2B382EAE273A3EBE273BD
:101DC00003F0C040B0F1005FE0D058002FD482EAA9
:101DD000E273A3EBE27303F0C04CBCF1005F4FEA87
:101DE000E270D3D05A002ED4B3FA83F2023A891AA1
:101DF000934043401A1AC9E7580018D482EAE273A4
:101E0000A3EBE27303F0C040B0F1005F4FEAE27C65
:101E1000BCD05A0014D4B3FA83F2023A891A934020
:101E20008CEA0303A3EB0C02B0E71146AEE75210B5
:101E30000131ABE7ACEB01010A41D21A6146BAE7C6
:101E40005B080131ECE75B080131D2E710B51346BE
:101E500082B00A460446194610460193FFF7B2FEC7
:101E6000019900283DD080EAE073A3EBE073B3FA58
:101E700083FEAEF1020CBCF1000F25DD03FA0CF37A
:101E8000CEF1020C0CF3070C0028B8BF5B42C4E98A
:101E9000003CA3B1F2B1A1EB0C001E280FDC10F145
:101EA0001E0F17DB002823D1D21A5ED082EAE2731C
:101EB000A3EBE27303F0C040B0F1005F3CD12046D9
:101EC000C4E9022102B010BD1CBFCEF1020C23FAFE
:101ED0000CF3D7E75A4261462046C4E9022102B01A
:101EE00010BDC4E900002046C4E9022102B010BDC3
:101EF00040DD0341D21AC2B382EAE273A3EBE2737C
:101F000003F0C040B0F1005FD9D058002FD482EA6E
:101F1000E273A3EBE27303F0C04CBCF1005F4FEA45
:101F2000E270CCD05A002ED4B3FA83F2023A891A66
:101F3000934043401A1AC2E7580018D482EAE27369
:101F4000A3EBE27303F0C040B0F1005F4FEAE27C24
:101F5000B5D05A0014D4B3FA83F2023A891A9340E6
:101F60008CEA0303A3EB0C02A9E71146A7E7521082
:101F70000131A4E7ACEB01010A41D21A6146BAE78C
:101F80005B080131ECE75B080131D2E7000000009B
:101F90002DE9F04F89B008AB03E90700FEF75EFEBC
:101FA000DDE90623D2E9004ED3E90058CDE902016C
:101FB0002E19AEEB080086EAE6730028CCBF724605
:101FC00042469FED597ADFED597ADDF814C0584941
:101FD000019200270EEB937A4FEA937B2CB385B3E3
:101FE0001E282EDC10F11E0F4CDB00284FD1002ED6
:101FF0005DD046FA0BF20AF3070322BB0139CCF895
:102000000070EDD1FEF72AFE029BC01A039B61EB24
:102010000301FEF743FA42A3D3E90023FEF770FB66
:1020200041EC100B09B0BDE8F08F5DBB002303E06D
:102030000239CCF80030E5D00129CCF80030F7D1D6
:10204000E0E77346224682EAE279A9EBE2799C3323
:10205000FE2B10DC002B18DDC9F3961902F00042AC
:1020600049EA020949EAC3590139CCF80090C9D0BC
:10207000002CB4D1D9E7002ACCBF17EE909A17EE06
:10208000109AF1E743462A46DDE7B946ECE713DD4F
:1020900045FA00F22244BAB182EAE273A3EBE2739A
:1020A00003F0C049B9F1005F14D1019BCBE70139BE
:1020B000CCF8007093D1A5E7019BA3EB0E0244FA84
:1020C00002F22A44002AE7D100230139CCF800307B
:1020D00086D197E75B0003D5019B521001338CE753
:1020E00082EAE279D317A9EBE279049309F0C043BD
:1020F000B3F1005FD9D019F0804F0CD1B9FA89F350
:10210000019A023B09FA03F9D31A049A82EA0909EF
:10211000A9EB020271E7019B4FEA59090133F4E789
:10212000F168E388B5F8E43EFFFF7FFFFFFF7F7FA4
:10213000A0860100000000002DE9F04F89B008AB37
:1021400003E90700FEF78AFDDDE90623D3E900571E
:10215000D2E9004ECDE90201AEEB070045FA00F3EB
:102160009FED677ADFED677ADDF814C06649019369
:102170004FF000090028CCBFF246BA46661B002D7E
:102180003DD0002C44D01E283FDC10F11E0F3FDB59
:10219000002847D1002E54D086EAE673A3EBE673FD
:1021A00003F0C042B2F1005F50D17346324682EA7A
:1021B000E27BABEBE27B9C33FE2B2CDC002B22DDA5
:1021C000CBF3961B02F000424BEA020B4BEAC35BD7
:1021D0000139CCF800B0D2D1FEF740FD029BC01A05
:1021E000039B61EB0301FEF759F943A3D3E90023F5
:1021F000FEF786FA41EC100B09B0BDE8F08F73468C
:102200002246002AD3D1CB46E2E773462246CEE7E8
:102210003B466A42CBE7002ACCBF17EE90BA17EED6
:1022200010BAD5E718DD019BE21AE2B182EAE27347
:10223000A3EBE27303F0C04BBBF1005F2FD1534619
:10224000B5E70139CCF800909BD1C5E75A0010D50D
:1022500072100EF10103D4E7AAEB0E0244FA02F267
:10226000521B002AE2D100230139CCF800308AD178
:10227000B2E786EAE672A2EBE67202F0C043B3F17F
:10228000005F92D053002BD4B2FA82F3023B9A4003
:10229000AEEB030382EAE672A2EBE672B1E75B0003
:1022A00003D552100AF10103ABE782EAE27BD317B0
:1022B000ABEBE27B04930BF0C043B3F1005FBED005
:1022C0001BF0804F10D1BBFA8BF3023B0BFA03FBE0
:1022D000AAEB0303049A82EA0B0BABEB020290E732
:1022E00052080EF10103D5E74FEA5B0B0AF1010337
:1022F000F0E700BFAFF30080F168E388B5F8E43E93
:10230000FFFF7FFFFFFF7F7FA086010010EE103AE6
:1023100010EE902A93EA020F07D49B1A002BB8BF45
:102320005B42834201DC01207047B0EEC07AF0EEE0
:10233000E07AF4EE477AF1EE10FAB8BFF0EE477AA1
:1023400030EE600AF5EE407AF1EE10FAB0EEC00A17
:1023500009D080EE277AB4EE471AF1EE10FACCBF1E
:10236000012000207047DFED057AB4EE670AF1EE38
:1023700010FA4CBF01200020704700BF6042A20D40
:1023800000B54FF0285283B082EAE273A3EBE27308
:10239000C3F3961343F08443DFED1B7A07EE103A44
:1023A000B4EE677AF1EE10FA0CBF0122002219D1C7
:1023B0004FF0285181EAE173A3EBE173C3F3961365
:1023C00043F0844307EE103ADFED0F7AB4EE677AFC
:1023D000F1EE10FA0CBF0123002309D102EA030039
:1023E00003B000BD09480092FFF736FB009ADFE713
:1023F0000748CDE90023FFF72FFBDDE9002302EAC0
:10240000030003B000BD00BF00002842904D01084A
:102410009C4D010800B54FF0005283B082EAE27390
:10242000A3EBE273C3F3961343F07E5307EE103A27
:10243000F7EE007AB4EE677AF1EE10FA0CBF0121E4
:10244000002175D14FF0005282EAE273A3EBE273F0
:10245000C3F3961343F07E5307EE103AF7EE007A7B
:10246000B4EE677AF1EE10FA0CBF0123002357D1C6
:1024700019404FF0005282EAE273A3EBE27382EA62
:10248000E273A3EBE273C3F3961343F0745300EECD
:10249000103A82EAE273A3EBE273C3F3961343F0BC
:1024A000745300EE903AF4EE400AF1EE10FA05D0C3
:1024B0009FED221A0820FFF729FF58B34FF0005272
:1024C00082EAE273A3EBE273C3F3961343F084430F
:1024D00000EE103A82EAE273A3EBE273C3F39613C1
:1024E00043F0844300EE903AF4EE400AF1EE10FA25
:1024F00005D09FED121A0820FFF708FF10B108461B
:1025000003B000BD00900E48FFF7A6FA00990846F8
:1025100003B000BD00900B48FFF79EFA0099CDE78D
:102520000948CDE90013FFF797FADDE900139FE7AB
:1025300006480091FFF790FA009983E717B7D13862
:10254000D84D0108B84D0108B04D0108A84D01084B
:1025500008B54FF0584383EAE372A2EBE372AAB1E5
:1025600082EAE273A3EBE273C3F3961302F0004234
:10257000134343F0814300EE103AF1EE047AB4EED7
:10258000670AF1EE10FA03D1012109E09FED1D0A5F
:102590009FED1D1A0820F1EE040AFFF7B7FE014671
:1025A0004FF0405383EAE372A2EBE372F2B182EAA6
:1025B000E273A3EBE273C3F3961302F000421343FA
:1025C00043F0804300EE103AF0EE087AB4EE670A6A
:1025D000F1EE10FA0CD1002282EAE273A3EBE2736F
:1025E000934214BF002001F0010008BD9FED050AD1
:1025F0009FED051A0820F0EE080AFFF787FE01405C
:10260000E9E700BF0000000017B7D1382DE9F04717
:102610002DED048BBAB069499FED699ADFED698AA7
:10262000694F482208A80FF02CFE0BAC1DAE01210B
:1026300054F80C5C54F8088C35F00042C64628F07B
:10264000004C5CD0C5F3C750FF2800F093800028F1
:1026500055D007EA851242F00052002DB8BF524211
:102660009C38BCF1000F4AD0CEF3C753FF2B00F0CB
:102670009780002B43D0DFF850C1BEF1000F0CEA69
:102680008E1C4CF0005CC0F296809C3B03441D33D2
:1026900082FB0CE94FEAC90040EA5E7080EAE07A0A
:1026A0001AF0804F18BF401018BF013338B354EDF3
:1026B000010A80EAE072A2EBE0729C33FE2BF5EE99
:1026C000400A4FDC002B5DDDF1EE10FA5DD000F02A
:1026D000004040EAC350C2F3961240EA020308EEFB
:1026E000103AF4EE480AF1EE10FA11D10C34A64279
:1026F0009ED108463AB0BDEC048BBDE8F08754ED9E
:10270000010AF5EE400AF1EE10FAEFD0B0EE498A78
:10271000B0EE681AB0EE480A1020FFF7F7FD8146C8
:102720000028E3D110EE900AFDF796FECDE90601F0
:1027300018EE100AFDF790FECDE904014046FDF7C2
:102740008BFECDE902012846FDF786FE1F4ACDE942
:10275000000180211AA80FF00DFC1AA8FFF77CF9E0
:102760004946C3E7002815DDF1EE10FA0DD09FEDC4
:10277000188AB6E7002DACBF4FF000524FF0604210
:1027800062206EE7F1EE10FAC0D11248FFF764F94B
:102790000021ABE7F1EE10FAF7D09FED0F8AA0E72A
:1027A000BEF1000F03DB4FF0005C62236EE74FF0D9
:1027B000604C62236AE7CCF1000C66E7DC45010857
:1027C0000000000017B75139C0FFFF1F0C4E010871
:1027D000FFFF7F7FF84D0108FFFF7FFF4FF00052A2
:1027E00082EAE273A3EBE273C3F3961343F09E43D2
:1027F00007EE103ADFED0A7AB4EE677AF1EE10FADE
:10280000CCBF0123002301DD1846704700B583B01B
:1028100004480193FFF720F9019B184603B000BD5F
:10282000286BEE4E2C4E01082DE9F0479FEDBD4A76
:10283000BD4DBE4FBE4EDFEDBF3ADFEDBF4AACB07F
:102840000023BE4ADFEDBE6A02FB057102FB017583
:10285000A6FB012042F21074A6FB05C2400B04FB4C
:102860001011520B07EE901A04FB125207EE102AB9
:10287000F8EEE77AB8EEC77A67EEA67A27EE267A00
:1028800017EE900A17EE101A30F0004277EE876AC2
:1028900021F0004C00F05C81C0F3C754FF2C00F025
:1028A000F481002C00F0D481A64A02EA801242F0A2
:1028B00000520028B8BF5242A4F19C0EBCF1000F98
:1028C00000F0EF81C1F3C750FF2800F07F8200289D
:1028D00000F0E7819B4C002904EA811444F0005485
:1028E000A8BFA0F19C0CC0F2AA83AEEB0C011E297C
:1028F00040F36E8182EAE270A0EBE2700EF19C017F
:102900009046C905C0F3961008F0004840EA080058
:10291000014306EE101AF4EE466AF1EE10FA22D0E8
:10292000B0EEC63AB0EEE65AB4EE435AF1EE10FA03
:10293000B8BFB0EE435A76EE665AB5EE405AF1EEA5
:1029400010FAF0EEE55A00F0968185EE853ADFED5B
:102950007E5AB4EE653AF1EE10FA4CBF0121002127
:10296000002900F0818227EE875A002A00F01381A7
:10297000002C00F011820EEB0C011D3182FB04894A
:102980004FEAC90040EA587080EAE07A1AF0804FB6
:1029900018BF401018BF0131002800F00F8180EAF5
:1029A000E078A8EBE0789C31FE2900F31C81002937
:1029B00040F3B88100F0004040EAC150C8F39618D7
:1029C00040EA080106EE901AB4EE665AF1EE10FAEB
:1029D00000F0DE80B0EEE63AF0EEC55AF4EE435A6F
:1029E000F1EE10FAB8BFF0EE435A36EEC56AF5EED6
:1029F000405AF1EE10FAB0EEC66A00F0FB8086EEA7
:102A0000253A9FED516AB4EE463AF1EE10FA4CBF0A
:102A100001210021002900F0F98037EEC75A002C6F
:102A200000F0C581002A00F0C180AEEB0C011E2928
:102A300048DD82EAE271A1EBE2710EF19C0C02F03A
:102A40000042C1F39611114341EACC5206EE902A9E
:102A5000DFED3E5AB0EEC56AB4EE656AF1EE10FAEB
:102A600027DDF4EE456AF1EE10FA22D0B0EEE63A38
:102A7000B4EE436AF1EE10FA77EE675AB8BFB0EEE3
:102A8000436A75EEA65AB5EE406AF1EE10FAF0EE22
:102A9000E55A00F04A8185EE863A9FED2B6AB4EE46
:102AA000463AF1EE10FA4CBF01220022002A00F053
:102AB00048810133B3F5FA7F7FF4C3AE01202CB017
:102AC000BDE8F08711F11E0F70DB002940F0AB81EB
:102AD000121B00F0A28182EAE271A1EBE27101F027
:102AE000C040B0F1005FA4D04C0040F1F38152101F
:102AF00082EAE271A1EBE271BEF1620F0EF19D0C70
:102B00009DD1DFED126AB0EEC56A002AB4EE666AA6
:102B100040F30882F1EE10FACBDD9FED073AF0EEBC
:102B2000436AA5E700000000EFBEADDE5FF36E3C38
:102B30005917B7D1FFFF7FFFFFFF7F7F0D66190099
:102B40000AD7233CC0FFFF1F6F12033A17B7D138D3
:102B5000BCF1000F00F0DB80C1F3C752FF2A00F088
:102B60002C81002A77D0BB4C04EA8114002944F060
:102B70000054B8BF6442A2F19C0C01F0FF4184EA0A
:102B8000E470A0EBE4704FF0000EA0467246B9E688
:102B900037EEC75A49E7B5EE405AF1EE10FA40F069
:102BA000018137EEC75A002C00F03781624282EA79
:102BB000E271A1EBE2710CF19C0C40E7B5EE405ADA
:102BC000F1EE10FAE4D0B0EE443AF0EE446A03E7D6
:102BD00011F11E0F70DA84EAE470A0EBE4700CF1DE
:102BE0009C01A0468DE60028CCBFF0EE646AF0EEB2
:102BF000636AE9E6DFED985AB4EE656AF1EE10FA21
:102C00004CBF0121002100297FF407AF15EE100A07
:102C1000CDED0B6A0A938DED097ACDED087AFDF7BB
:102C20001BFC04460D460B98CDE90645FDF714FC48
:102C300004460D460998CDE90445FDF70DFC044610
:102C40000D460898CDE90245FDF706FC834A2CE1C4
:102C5000BCF1000F80D1F5EE406AF1EE10FA00F001
:102C60008B819FED7F3A4FF0000CB0EE436A6446D3
:102C7000E646624656E69FED785AF4EE455AF1EE86
:102C800010FA4CBF012100216AE60028ACBF4FF0CA
:102C900000524FF060424FF0620EBCF1000F7FF423
:102CA00011AE82EAE270A0EBE2704FF0000C0EF180
:102CB0009C019046644624E6002940F03C8112EBDA
:102CC000040811D088EAE871890F48FA01F87144C4
:102CD00001F3070188EAE870A0EBE8709C31FE2957
:102CE0000BDC00293FF70DAEF5EE406AF1EE10FA6D
:102CF00000F081809FED5A6A12E6B8F1000F42DDC4
:102D000074EEE65AB0EE645AB0EE646A1DE6F5EE73
:102D1000406AF1EE10FA71D09FED516A6446E646C2
:102D20006246FDE5F0EE446A4EE69FED4B6AF4EE36
:102D3000465AF1EE10FA4CBF01220022002A7FF41D
:102D4000B8AE15EE100ACDED0B6A0A938DED097A37
:102D5000CDED087AFDF780FB04460D460B98CDE9D2
:102D60000645FDF779FB04460D460998CDE9044573
:102D7000FDF772FB04460D460898CDE90245FDF7C4
:102D80006BFB384A91E073EEE65AB0EE645AB0EE4F
:102D9000636AF0EEE55AD8E5B5EE405AF1EE10FA66
:102DA00000F0DE809FED2E3AF0EE436A14E6002A32
:102DB0007FF43FAEF0EE446A4AE600294FF0620C21
:102DC0004FF0FE412CDB4FF00054D8E60029AEF165
:102DD0006201ACBF4FF000544FF0604411F11E0F80
:102DE00006DB002940F0BF804FF0620EF44666E734
:102DF0004FF0620CEFE627EE875ABCE527EE875AC4
:102E0000B5EE405AF1EE10FA05D0B0EE663A6446DF
:102E1000E6466246E0E537EEC75ADFED116A17E68F
:102E20004FF06044ABE64EDD44FA01F1521AF4462D
:102E300082EAE271A1EBE27101F0C040B0F1005F03
:102E400040F0AF8082EAE271A1EBE2710CF19C0CE0
:102E5000F5E500BFC0FFFF1F6042A20D644E0108F0
:102E600000000000904E010816EE900A8DED0B6AEE
:102E70000A938DED097ACDED087AFDF7EDFA044657
:102E80000D460B98CDE90645FDF7E6FA04460D46DA
:102E90000998CDE90445FDF7DFFA04460D46089888
:102EA000CDE90245FDF7D8FA684A0A9BCDE9000151
:102EB00080210CA80FF05EF80CA8FEF7CDFD0020D5
:102EC0002CB0BDE8F087ACEB0E0E42FA0EF2121BEE
:102ED000AED1A2E782EAE271A1EBE27101F0C0405B
:102EE000B0F1005F4FEAE2743FF4A3AD480000F197
:102EF0009E80B1FA81F2023AAEEB020C9140614041
:102F00000A1B002A89D082EAE271A1EBE2710CF17E
:102F10009C0CBCF1FE0F3FF7F4ADBCF1000F7FF746
:102F200049AF8CE5F1EE10FA7FF7C3AD9FED483A5B
:102F3000DFED486A9CE53ADD44FA01F101EB020855
:102F4000714688EAE870A0EBE87000F0C049B9F17A
:102F5000005F1CD188EAE870A0EBE8709C31D0E4F7
:102F600037EEC75A65E5CEF1620842FA08F84FF02D
:102F7000620CA0446146E4E727EE875AB5EE405A5A
:102F8000F1EE10FA3FF447AF4FF0000C3DE7400080
:102F900017D54FEA68080131B8F1000F3FF4A4AE2D
:102FA00098E649002CD552100CF1010CA9E7ACEBC6
:102FB0000E0842FA08F818EB04083FF495AE614693
:102FC000BFE788EAE870A0EBE87000F0C04ABAF109
:102FD000005F4FEAE879BDD010F0804F33D1B0FAEE
:102FE00080F8A8F10208A1EB080100FA08F089EACC
:102FF0000000A0EB0908B8F1000F3FF475AE69E6D8
:1030000082EAE271A1EBE27101F0C044B4F1005F29
:103010004FEAE2703FF416AF4A000CD4B1FA81F2E5
:10302000023AACEB020C914041400A1A69E74908A8
:103030000EF1010C63E749080CF1010CF4E764425E
:10304000A0F19C0C51E440080131D0E7384E010852
:10305000FFFF7F7FFFFF7FFFFFF7E6BB00B5244A3E
:103060006FF0A20382FB020C4FEACC0141EA5071DF
:1030700081EAE17E1EF0804F18BF491018BF01336E
:10308000D9B181EAE172A2EBE1729C33FE2B16DC2E
:10309000002B12DD01F0004141EAC351C2F3961248
:1030A00041EA020307EE903ADFED126AB0EEE77AEA
:1030B000B4EE667AF1EE10FA03D5012000BD0020CF
:1030C00000BDDFED0D6AF4EE667AF1EE10FAF4D091
:1030D00077EEE67AF6EE006AF0EEE77A87EE876A38
:1030E000B4EE666AF1EE10FA4CBF0120002000BD7C
:1030F0000042392F6042A20DC21601006FF0180382
:1031000003F307034FF0505181EAE172A2EBE17241
:103110009C33FE2B11DC002B34DDC2F3961242EA05
:10312000C35306EE903AF3EE0A7AF4EE676AF1EED4
:1031300010FA04D1012318467047DFED146A9FEDA1
:10314000141A00B5B0EE660A95B01020F3EE0A0A24
:10315000FFF7DCF8034610B1184615B000BD039028
:1031600016EE900AFDF778F90A4ACDE900014021F0
:1031700004A80EF0FFFE04A8FEF76EFC039B1846A1
:1031800015B000BDDFED046AD9E700BFFFFF7F7F08
:103190006F12033ABC4E0108000000002DE9F04F09
:1031A0002DED048BC7B0BA499FEDBA9ADFEDBA8A0C
:1031B000782208A80FF065F80BAC29AE01212EE0AB
:1031C0001D3A02F30702BCF1000F4FEA5303C0F2AD
:1031D000338183EAE370A0EBE3709C32FE2A00F3B4
:1031E000848154ED010A002AF5EE400A40F374810F
:1031F000F1EE10FA00F0EC8003F00043C0F39610FB
:10320000184340EAC25308EE103AB4EE608AF1EE79
:1032100010FA40F091800C34A64200F0BF8054F8C0
:103220000C5C35F0004200F0D880C5F3C750FF2891
:1032300000F03E81002800F0E180984A54F8087CB4
:1032400002EA8512002D42F00052BC46C0F207810E
:1032500037F0004300F0E080C7F3C759B9F1FF0F22
:10326000A0F19C0000F05381B9F1000F00F0D48070
:103270008A4B03EA8C1E4EF0005EBCF1000FB8BF13
:10328000CEF1000E002A4DD0A9F19C0982EA0E0C65
:1032900082EAE273A3EBE2738EEAEE72A2EBEE72C5
:1032A0004FEA82081FFA88F8C2F38F32B3FBF2FAB2
:1032B0000AFB12330AFB08FBBBEB034F4FEA034E3A
:1032C0000DD91344ABEB080BBBEB034F4FEA034E96
:1032D00092BF0AF1FF3AAAF1020AABEB080BAEEB80
:1032E0000B0EBEFBF2F303FB12EE03FB08FBBBEB82
:1032F0000E4F08D97244ABEB080BBBEB024F94BFE7
:1033000003F1FF33023B43EA0A43A0EB09025800F2
:103310003FF556AF1E3A02F30702BCF1000F43DB44
:10332000002B44D154ED010AF5EE400AF1EE10FAFB
:103330003FF471AFB0EE498AB0EE681AB0EE480AB9
:103340004020FEF7E3FF804600287FF464AF10EED4
:10335000900AFDF781F8CDE9060118EE100AFDF795
:103360007BF8CDE904013846FDF776F802460B46B6
:103370002846CDE90223FDF76FF80B460246CDE95A
:1033800000238021464A26A80EF0F4FD0C3426A81E
:10339000FEF762FBA64241467FF441AF084647B0C4
:1033A000BDEC048BBDE8F08F5B42002BBAD083EA02
:1033B000E370A0EBE3709C32FE2A7FF712AF002B84
:1033C00054ED010A30DCF5EE400AF1EE10FA43D17B
:1033D0003448FEF741FB00211DE754F8087C37F024
:1033E0000043BC4618D0C7F3C759B9F1FF0F99D0B5
:1033F000B9F1000F10D01046024639E754F8087CA6
:1034000037F00043BC4607D0C7F3C759B9F1FF0FE7
:1034100088D0B9F1000FEFD14FF0005383EAE37287
:10342000A2EBE37254ED010AF5EE400AF1EE10FA58
:10343000CED09FED1D8AE8E65B4283EAE370A0EB05
:10344000E3709C32FE2A7FF7CCAE54ED010AF5EE14
:10345000400AF1EE10FABBD09FED148AD5E637F0A2
:1034600000430CD0C7F3C759B9F1FF0FC2F10002F6
:10347000A0F19C004BD0B9F1000F7FF4F9AE4FF0F2
:10348000604383EAE372A2EBE37254ED010ADEE7E4
:1034900024460108000000006F12833AC0FFFF1F9E
:1034A000E44E0108D04E0108FFFF7F7FFFFF7FFF42
:1034B00054F8087C002DBC461ADB37F00043ABD033
:1034C000C7F3C759B9F1FF0F29D0B9F1000FA3D045
:1034D00062204FF00052CBE6F1EE10FA7FF42AAFF3
:1034E0001F48FEF7B9FA002195E654ED010A9BE763
:1034F00037F00043C3D0C7F3C759B9F1FF0F1AD053
:10350000B9F1000FBBD062204FF06042B0E6BCF1D1
:10351000000F4FF062090BDB4FF0005EB6E6002FA4
:103520004FF0620916DB4FF0005E48467246ADE68A
:103530004FF0604EAAE6002F4FF0620905DB4FF016
:10354000005E48464FF06042A0E64FF0604E4846AD
:1035500072469BE64FF0604E48464FF0005295E6AB
:10356000D04E010808B54FF0584282EAE273A3EB4F
:10357000E273C3F3961343F0404343F4000307EEB2
:10358000903AF9EE040AF4EE607AF1EE10FA23D0E4
:103590009FED121A00EE103A0820FEF7B7FE014622
:1035A0004FF0405282EAE273A3EBE273C3F3961347
:1035B00043F0804300EE103AF0EE080AB4EE600AE1
:1035C000F1EE10FA06D09FED051A0820FEF79EFED8
:1035D0000140C9B2084608BD0121E1E717B7D1385B
:1035E00070B5324C324E0FCCA0B003AD0FC50FCC2E
:1035F0000FC50FCC0FC523682B6003AC10AD0120A5
:1036000015E0C1F1020102FA0CF201F30701002BEF
:10361000B8BF52420AB3012930DD002AD4BF0022CC
:103620000122C2F10042934217D1A54224D054F89E
:10363000043B002BF9D083EAE372A2EBE372B2FA07
:1036400082F1A1F1020CBCF1000FDADC1ABFC1F16A
:103650000201CA406146D8E7002200924021154A83
:1036600028460EF087FC144A1368E3B128469847B1
:10367000A5424FF00000DAD120B070BD82EAE27CB2
:10368000ACEBE27C002907DB0CFA01FC002AB4BF9A
:10369000CCF100026246C6E711F11E0FDCDB4942A5
:1036A0002CFA01FCF2E716603346DFE79C4601087E
:1036B000751A0008044F0108281200202DE9F04176
:1036C000B14DB24F2DED028B0FCDB6B00AAC0FC489
:1036D0000FCD0FC495E80F00DFEDAD8A84E80F0031
:1036E00019AE0DAC012154F80C5C35F0004355D0F7
:1036F000C5F3C750FF2800F0E58000284ED007EA48
:10370000851343F00053002DB8BF5B429C3854F83A
:10371000088C38F00042C44618D0CCF3C752FF2AB8
:1037200000F0BB80002A5DD007EA8C1E4EF0005EE0
:10373000BCF1000FB8BFCEF1000E002B00F0D1801D
:103740009C3AA0EB020CBCF11E0F59DD00F19C026B
:1037500083EAE370A0EBE37003F0004343EAC25353
:10376000C0F39610034308EE103A54ED010AF4EE4C
:10377000480AF1EE10FA08D0B0EE681AB0EE480A26
:103780000820FEF7C3FD002866D00C34A642AAD15B
:10379000084636B0BDEC028BBDE8F08154F8088CC9
:1037A00038F00043C44628D0CCF3C752FF2A00F0BB
:1037B000918012B300200346B6E740F3B4804EFA7E
:1037C0000CFCA3EB0C0383EAE372A2EBE37202F0BE
:1037D000C04CBCF1005FB9D0520040F1B6805B1024
:1037E000013053B100F19C0283EAE370A0EBE37077
:1037F000FE2A00F39380002AAEDC9FED668AB4E7D0
:103800001CF11E0F56DBBCF1000FD6D1B3EB0E033B
:10381000F3D083EAE372A2EBE37202F0C04CBCF196
:10382000005F93D052006FD483EAE372A2EBE3729D
:1038300002F0C04CBCF1005F4FEAE37E86D053003B
:1038400000F19B80B2FA82F3023BC01A9A408EEAE2
:103850000202A2EB0E03C4E7099010EE900AFCF7F7
:10386000FBFDCDE9060118EE100AFCF7F5FDCDE9E8
:1038700004014046FCF7F0FDCDE902012846FCF7C3
:10388000EBFD454ACDE90001802116A80EF072FB40
:1038900016A8FEF7E1F8099977E7BCF1000FA0F14F
:1038A0006202B4BF4FF0604E4FF0005E12F11E0F87
:1038B0001EDA6222CEF100039C3283EAE370A0EBB1
:1038C000E37049E7002DACBF4FF000534FF0604369
:1038D00062201CE7BCF1000F4FF0FE020BDB4FF043
:1038E000005ECEF1000383EAE370A0EBE37033E700
:1038F00022BB62208AE74FF0604ECEF1000383EADC
:10390000E370A0EBE37027E75B1000F19D0283EA10
:10391000E370A0EBE370FF2A7FF41EAF002B0ADDFB
:103920009FED1E8A21E7101A0341B3EB0E033FF40B
:1039300064AF104647E79FED1A8A16E7C0F16200B0
:103940000341A3EB0E0362203DE783EAE372A2EB9F
:10395000E37202F0C04EBEF1005F4FEAE37C3FF439
:10396000F5AE53000CD4B2FA82F3023BC01A9A406F
:103970008CEA0202A2EB0C0333E75208013066E73F
:1039800052080130F4E700BFD0460108C0FFFF1F16
:1039900017B7513900000000184F0108FFFF7F7F63
:1039A000FFFF7FFF012070472DE9F047A94EDFF8A8
:1039B000AC822DED028B0FCEB8B009AD0FC50FCE86
:1039C0000FC50FCE0FC596E8070085E80700DFEDAD
:1039D000A28A0CAC1BAF4FF0010A54F80C5C54F8EF
:1039E000089C35F00043484629F0004100F0A980CA
:1039F000C5F3C756FF2E00F0F980002E00F0E880D6
:103A000008EA851343F00053002DB8BF5B423246ED
:103A1000A1B3C9F3C752FF2AA6F19C0100F0FB80B5
:103A200052B38E4E002806EA801646F00056A8BF14
:103A30009C3AC0F29781881A1E281DDC10F11E0FD7
:103A4000C0F2BF80002840F03881F61811D086EA15
:103A5000E672920F46FA02F30A4402F307029C321E
:103A600083EAE371A1EBE371FE2A00F3A280002A4E
:103A700008DC9FED818A0EE001F19C0283EAE3718C
:103A8000A1EBE37103F0004343EAC253C1F3961183
:103A90000B4308EE103A54ED010AF4EE480AF1EE39
:103AA00010FA08D0B0EE681AB0EE480A0820FEF707
:103AB0002DFC00285DD00C34BC428ED1684A82EACD
:103AC000E273A3EBE27303F0C042B2F1005F40F097
:103AD000D580052080EAE073A3EBE07303F0C042D9
:103AE000B2F1005F08BF6FF01C0140F0F680FEF7F6
:103AF00089F8B5EE400AF1EE10FA0CDDDFED597AE7
:103B0000B4EE670AF1EE10FA05D5504638B0BDECB8
:103B1000028BBDE8F08710EE100AFCF79DFC524ABC
:103B2000CDE90001802118A80EF024FA18A8FDF7AD
:103B300093FF4FF0000A504638B0BDEC028BBDE851
:103B4000F087002995D0C9F3C752FF2A70D0002A08
:103B50008FD0424B002803EA801343F0005380F2D9
:103B600004815B429C3A83EAE371A1EBE3719C32EE
:103B700088E7824610EE900AFCF76EFCCDE906015C
:103B800018EE100AFCF768FCCDE904014846FCF782
:103B900063FCCDE902012846FCF75EFC334ACDE91F
:103BA0000001802118A80EF0E5F918A8FDF754FFD0
:103BB00081E7002B43DD9FED2E8A6CE762224FF0F8
:103BC00000569C3286EAE671A1EBE671334659E76E
:103BD00000293FF44EAFC9F3C752FF2AB7D1B14510
:103BE0004FF0620228DA4FF06043BCE7002D08DB9B
:103BF0004FF0005349B1C0F3C752FF2A55D062219C
:103C00000EE74FF060430029F5D183EAE371A1EBA1
:103C1000E371FE2236E70028A6F1FE0612DB16F15C
:103C20001E0FCBDB002E63D14FF0005662210CE754
:103C300000284FF06202D6DB4FF0005393E79FED70
:103C40000D8A28E716F11E0F5ADA62224FF06046FD
:103C5000B7E700BF0047010817B75139C0FFFF1F82
:103C60000500002077CCAB32584F0108384F0108CF
:103C7000FFFF7F7FFFFF7FFF0000000059007FF5FF
:103C800028AF022080EAE073A3EBE07303F0C042A8
:103C9000B2F1005F08BF6FF01B013FF428AF5B007B
:103CA00054D56FF01A01012021E70028B4BF4FF06E
:103CB00060464FF000566221C7E61CDD46FA00F070
:103CC00003440A4683EAE371A1EBE37101F0C040CB
:103CD000B0F1005F19D19C32D0E65A0003D56FF0E5
:103CE0001B01022003E76FF037014FF02050FEE682
:103CF00062224FF00056511A0B419B19E2D1B8E6EF
:103D00004EBB4FF0604662219FE6490007D55B102D
:103D10000132002B7FF4A3AE1FED298ABBE683EAB4
:103D2000E371A1EBE37101F0C046B6F1005F4FEA29
:103D3000E370D0D04E0012D4B1FA81F3023BD21A14
:103D4000994041400B1A002BE6D088E66FF037010E
:103D50004FF00050CBE662224FF06046CBE74908B7
:103D60000132EEE776429C3A65E69C3AFBE600BFFC
:103D7000F0B5BDB03149324D324E602204A80EF08C
:103D800080FA06AF1EAC01211DE00EFA02F3BCF171
:103D9000000F00DA5B4257F8042C9A4210D0CDE9AC
:103DA0000232FCF759FB284ACDE9000180211CA80A
:103DB0000EF0E0F8254A13684BB31CA89847002181
:103DC0000837BC4235D057F8080C30F00043E2D039
:103DD000C0F3C753FF2B27D0002BDCD005EA801C93
:103DE00000284CF0005CA3F19C02B8BFCCF1000CA1
:103DF000012A0FDC8CEAEC7EAEEBEC7E002AC4DA02
:103E00001E3219DBC3F19C032EFA03F3BFE71660E1
:103E10003346D2E7BCF1000FD4BF4FF0000C4FF097
:103E2000010CCCF10043B6E76FF0004383EAE07386
:103E3000B1E708463DB0F0BD0023ACE73C470108C0
:103E4000C0FFFF1F751A0008744F010828120020D8
:103E500030B54F4C2DED048B0FCCAFB00DF1100CE5
:103E6000ACE80F000FCCACE80F0094E80300DFEDE6
:103E7000498A9FED499ADFED499A8CE8030004AC2A
:103E80000EAD012062E0C2F3C753FF2B73D0002BAD
:103E900063D0434901EA8211002A41F00051BABFC0
:103EA00049424FF0004C4FF0000C02F0FF4E81EA07
:103EB000E173A3EBE173C3F396134CEA0E010B43DA
:103EC00007EE903AB4EE678AF1EE10FA3CD017EEA6
:103ED000903A92EA030F05D49B1A002BB8BF5B42BD
:103EE000042B31DDB0EEC87AB0EEE76AB4EE467A64
:103EF000F1EE10FAB8BFB0EE467A77EEC86AB5EECA
:103F0000407AF1EE10FAF0EEE66A29D086EE876A82
:103F1000B4EE496AF1EE10FA16D417EE900AFCF7E7
:103F20009BFA02460B4618EE100ACDE90223FCF775
:103F300093FA1C4ACDE90001802128460EF01AF8B8
:103F40002846FDF789FD0020A54210D0B4EC018A77
:103F500018EE102A32F0004395D1F0EE687AB1E7FE
:103F6000F4EE696AF1EE10FAD7D5A542EED12FB082
:103F7000BDEC048B30BD002AB9BF4FF0004C4FF0B0
:103F800060414FF0000C4FF000514FF0FE4E8EE7B5
:103F90009C47010800000000ACC527376042A20D15
:103FA000C0FFFF1F904F010870B52DED048BC4B00A
:103FB0004749DFED488A9FED489ADFED489A802215
:103FC00004A80EF05EF908AC28AD012061E083EA98
:103FD000E371A1EBE37154F80C2C9C32FE2A5FDCF8
:103FE000002A6EDD03F0004343EAC253C1F3961189
:103FF0000B4308EE103A54ED027AF4EE487AF1EEF3
:1040000010FA43D018EE103A17EE902A93EA020FF6
:1040100005D49B1A002BB8BF5B42042B36DDB0EEF3
:10402000E77AB0EEC86AB4EE467AF1EE10FAB8BF9D
:10403000B0EE467A78EE676AB5EE407AF1EE10FAA5
:10404000F0EEE66A31D086EE876AB4EE496AF1EEA8
:1040500010FA1BD417EE900AFCF7FEF902460B4645
:1040600018EE100A54F8046CCDE90223FCF7F4F9B9
:1040700002460B46CDE900238021194A334624A885
:104080000DF078FF24A8FDF7E7FC00201034A542CE
:1040900013D054F8103C002B99D1B0EE688AAAE7EF
:1040A000002B11DD9FED0F8AA5E7F4EE696AF1EEB2
:1040B00010FACFD51034A542EBD144B0BDEC048B3F
:1040C00070BD9FED048A96E79FED078A93E700BFD6
:1040D000C447010800000000ACC527376042A20DAC
:1040E000AC4F0108FFFF7F7FFFFF7FFF08B54FF058
:1040F000205282EAE273A3EBE273C3F3961343F018
:10410000814300EE103AF1EE040AB4EE600AF1EEDB
:1041100010FA59D09FED2D1A0820FEF7F7F8014646
:104120004FF0205282EAE273A3EBE273C3F39613DB
:1041300043F0824300EE103AF2EE040AB4EE600A55
:10414000F1EE10FA06D09FED211A0820FEF7DEF8F6
:104150000840C1B24FF0584282EAE273A3EBE27327
:10416000C3F3961343F0404343F4000307EE903A41
:10417000F9EE040AF4EE607AF1EE10FA08D09FED41
:10418000131A00EE103A0820FEF7C0F80840C1B23A
:104190004FF0205282EAE273A3EBE273C3F396136B
:1041A00043F0814300EE103AF1EE040AB4EE600AE7
:1041B000F1EE10FA06D09FED051A0820FEF7A6F8DA
:1041C0000840C1B2084608BD0121A9E717B7D13898
:1041D00008B54FF0405282EAE273A3EBE273C3F3F7
:1041E000961343F0824300EE103AF2EE080AB4EE62
:1041F000600AF1EE10FA59D09FED2D1A0820FEF753
:1042000085F801464FF0405282EAE273A3EBE27375
:10421000C3F3961343F0804300EE103AF0EE080A21
:10422000B4EE600AF1EE10FA06D09FED211A0820D4
:10423000FEF76CF80840C1B24FF0604282EAE273C8
:10424000A3EBE273C3F3961343F0414343F400033B
:1042500007EE903AFBEE000AF4EE607AF1EE10FA07
:1042600008D09FED131A00EE103A0820FEF74EF822
:104270000840C1B24FF0005282EAE273A3EBE2734E
:10428000C3F3961343F08943DFED0A0A00EE103AB8
:10429000B4EE600AF1EE10FA06D09FED051A082080
:1042A000FEF734F80840C1B2084608BD0121A9E76D
:1042B00017B7D1380000804410B52C4A672382FB21
:1042C000020C4FEACC0141EA507181EAE17E1EF016
:1042D000804F18BF491018BF01337F2B14D1012222
:1042E000234B6FF0A20183FB03CE4FEACE0040EADE
:1042F0005C7080EAE07414F0804F18BF401018BF63
:10430000013100BB104610BDC1B181EAE172A2EBE0
:10431000E1729C33FE2B25DC002B0FDD01F0004108
:1043200041EAC351C2F396121143DFED127A07EE50
:10433000101AB4EE677AF1EE10FAD0DC0E48FDF7F1
:104340008BFB0022CCE7FDF75DFCDFED0C7AF4EE91
:10435000407AF1EE10FAD5DC0948FDF77DFB00222A
:10436000104610BD0029BADCE8E700BF003B5E2B19
:104370000042392F6B0B5E5DC84F01086042A20DF1
:10438000D44F010830B54FF0804289B082EAE27321
:10439000A3EBE27303F0C043B3F1005F40F09480FD
:1043A00082EAE273A3EBE2734FF08142C3F3961308
:1043B000134300EE103AF2EE000AB4EE600AF1EE9A
:1043C00010FA61D101244FF0C05080EAE073A3EBF2
:1043D000E07303F0C042B2F1005F08BF6FF0190153
:1043E0007BD1FDF70FFCF1EE080AB4EE600AF1EEA6
:1043F00010FA06D09FED3E1A0820FDF787FF00282F
:104400005CD04FF000536FF019014FF0205283FB46
:1044100002CE4FEACE0040EA5C7080EAE07515F00B
:10442000804F18BF401018BF0131FDF7EBFBF2EED3
:10443000040AB4EE600AF1EE10FA05D09FED2C1AD2
:104440001020FDF763FF98B36FF01A0300934FF04D
:1044500020514FF0005306A86FF01802FDF74CFBF7
:10446000DDE90601FDF7CEFBF1EE040AB4EE600AC9
:10447000F1EE10FA05D09FED1F1A4020FDF746FF20
:1044800070B1204609B030BD9FED191A0820FDF724
:104490003DFF0446002896D11748FDF7DDFA92E764
:1044A00003901648FDF7D8FA039C204609B030BDAA
:1044B00003901348FDF7D0FA039CC5E70390114819
:1044C000FDF7CAFA039C9CE74FF0005282EAE273C0
:1044D000A3EBE2734FF0824268E75B0047BF6FF0E7
:1044E00018014FF040606FF01A014FF0405078E72C
:1044F00017B7D1386F12833AE44F0108FC4F010817
:10450000F44F0108EC4F010830B5364A83B082EA17
:10451000E273A3EBE2731B0E2A2B0CBF01250025CF
:104520003CD1314A82EAE273A3EBE2731B0E2A2BE1
:104530000CBF012200224ED12C4981EAE173A3EB8A
:10454000E1731B0E2A2B0CBF012400243DD1284906
:1045500005EA020381EAE172A2EBE172120E2A2A55
:104560000CBF012500252AD1224904EA030281EA71
:10457000E173A3EBE1739C0F1BD11F486FF01D018A
:10458000FDF720FB54EA000305EA02050CBF0124F5
:10459000002438B905EA040003B030BD1748FDF720
:1045A0005BFABEE71648FDF757FA05EA040003B0C8
:1045B00030BD14480192FDF74FFA019ADDE7124829
:1045C0000193FDF749FA019BCEE70F480192FDF7F1
:1045D00043FA019ABBE70D480192FDF73DFA019AB3
:1045E000AAE700BF80BEFF2A8041002A804100D593
:1045F00080BEFFD5C09DEF3F406210C0045001084F
:104600005050010840500108285001081850010876
:1046100084B0CDE90023CDE90201034628B98242E6
:10462000D4BF0020012004B07047C00F002AFAD088
:1046300093EA020FF7D403980199884206D0002B21
:1046400010DB8842ACBF00200120ECE7002B04DB2C
:104650009342ACBF00200120E5E79342D4BF002085
:104660000120E0E78842D4BF00200120DBE700BF43
:1046700030B54FF0205085B06FF01A014FF0205246
:104680006FF01903CDE90001CDE90223DDE9002334
:10469000DDE90201FFF7BCFF4FF0205200284CD1AA
:1046A00082EAE273A3EBE2734FF08142C3F3961305
:1046B000134300EE103AF1EE040AB4EE600AF1EE94
:1046C00010FA08BF012505D09FED1F1A0820FDF73D
:1046D0001DFE05464FF070526FF01903CDE900231F
:1046E0004FF020526FF01903CDE90223DDE90023DA
:1046F000DDE90201FFF78CFF00280CBF4FF070527C
:104700004FF0205282EAE273A3EBE273C3F39613F5
:1047100043F0824300EE103AF2EE040AB4EE600A6F
:10472000F1EE10FA06D09FED081A0820FDF7EEFD15
:104730002840C5B2284605B030BD82EAE273A3EB3B
:10474000E2734FF08242B1E717B7D1382DE9F04359
:104750004FF0005285B06FF01C03CDE90223CDE984
:104760000023DDE90201DDE90023FFF751FF6C467C
:10477000054600287FD14FF000526FF01C03CDE9B1
:104780000223CDE90023DDE9020194E80C00FFF7E4
:104790003FFF064600286AD135434FF000586FF0BE
:1047A0001C094FF000566FF01B07CDE90089CDE9D9
:1047B000026785F0010594E80C00DDE90201EDB225
:1047C000FFF726FF78B94FF040526FF01B03CDE999
:1047D0000067CDE9022394E80C00DDE90201FFF750
:1047E00017FF0646A0B34FF040586FF01B094FF07B
:1047F00000566FF01B07CDE90089CDE9026794E808
:104800000C00DDE90201FFF703FF70B14FF0005229
:104810006FF01C03CDE90223CDE90067DDE9020159
:1048200094E80C00FFF7F4FE18B9284605B0BDE87F
:10483000F083CDE90089DDE9020194E80C00FFF77F
:10484000E7FE0028F1D105460D48FDF705F9ECE734
:10485000CDE90089DDE9020194E80C00FFF7D8FEFC
:104860000028C0D00748FDF7F7F83546BBE70648F3
:10487000FDF7F2F890E70548FDF7EEF87BE700BF9B
:104880008C500108785001086C50010864500108F0
:1048900082B08DED010A019B33F0004211D0C3F3C9
:1048A000C751FF2917D089B1104A02EA831242F09A
:1048B0000052002BB8BF52429C39C0E9002102B01F
:1048C00070471146C0E9002102B070470A46C0E9AE
:1048D000002102B07047002BACBF4FF000524FF0E8
:1048E00060426221C0E9002102B07047C0FFFF1F93
:1048F0000A68D2B1D1F808C0BCF1000F19D030B5A8
:104900004B68C9680B441D3382FB0CE44FEAC401B9
:1049100041EA5E7181EAE17515F0804F18BF4910D8
:1049200018BF0133C0E9001330BD1346C0E90023AE
:10493000704763466246F9E782B030B587B0CDE98B
:10494000001204468E469446CBB10D9ABAB10C992A
:104950000E9DBEF1000F6DD0681883FB02315A0F17
:1049600042EAC10200F11D0382EAE27103EB917396
:10497000ACEB03001E284FEA9171654607DDC4E9E0
:1049800000EC204607B0BDE8304002B0704710F19F
:104990001E0F42FA01F237DB002838D112EB0E026B
:1049A00050D082EAE271890F0A414FD082EAE27068
:1049B000A0EBE270194400F0C043B3F1005F4FEA8E
:1049C000E27C45D1C4E90021DBE7A3EB0C0C4EFAF5
:1049D0000CFE1EEB020235D003F3070382EAE271FC
:1049E000A1EBE27101F0C040B0F1005F4FEAE27C60
:1049F0000AD04A004AD4B1FA81F2023A9B1A914095
:104A00008CEA0101A1EB0C02C4E90023B9E7DCDD6B
:104A1000024112EB0E0215D082EAE273A3EBE273BD
:104A200003F0C041B1F1005F4FEAE2701CD1C4E96C
:104A30000025A6E7CDE9023102A9CDE90425FFF75B
:104A400057FF9EE70023C4E900339AE71146B9E710
:104A5000450014D4B0FA80F3023BC91A98408CEA9E
:104A60000003A3EB0C02ADE759000BD4B3FA83F2B9
:104A7000023AACEB0205934043401A1AD7E74008CC
:104A80000131ECE75B080CF10105F5E7490801335A
:104A9000B6E700BF10B56FF01A034FF000514FF0AA
:104AA00040508EB081FB004C4FEACC0242EA547277
:104AB00082EAE27E1EF0804F18BF521018BF013309
:104AC000002A00F0918082EAE271A1EBE2719C334E
:104AD000FE2B66DC002B40F3878002F0004242EAA6
:104AE000C352C1F3961142EA010300EE103AF1EE0F
:104AF000087AB4EE670AF1EE10FA08BF012454D127
:104B0000444B0FCB0DF1380C0CE90F004FF0005265
:104B10005CE902016FF01C03CDE90623CDE9010138
:104B20000B980A9B0090DDE9061208A8FFF704FF26
:104B3000089B002B47D083EAE371A1EBE371099A4C
:104B40009C32FE2A53DC002A3DDD03F0004343EA99
:104B5000C253C1F396110B4300EE103AF1EE0C7AFA
:104B6000B4EE670AF1EE10FA2FD14FF0005282EA4C
:104B7000E273A3EBE273C3F3961343F0814300EEB9
:104B8000103AF1EE000AB4EE600AF1EE10FA05D028
:104B90009FED211A0820FDF7B9FB68B320460EB03F
:104BA00010BD002A30DD9FED1D0A9FED1B1A042069
:104BB000F1EE080AFDF7AAFB04460028A0D1184828
:104BC000FCF74AFF9CE79FED170A9FED131A082098
:104BD000F1EE0C0AFDF79AFB0028C6D105901248A9
:104BE000FCF73AFF059CC0E79FED0E0ADDE7002BBE
:104BF0000DDD9FED0A0AE8E705900C48FCF72CFF55
:104C0000059C20460EB010BD9FED090ACDE79FED33
:104C1000080ADAE74448010817B7D138FFFF7F7F59
:104C2000A050010800000000AC500108B850010875
:104C3000FFFF7FFF2DE9F0418E4C94E80F0092B00A
:104C40000AAE86E80F004FF000506FF01C01CDE96E
:104C50000E01DDE90C0101AF87E803000B9B009317
:104C60000EAD95E806000A9B06A81034FFF764FE17
:104C700094E80F0085E80F00DDE90601CDE90801A1
:104C8000DDE9100187E803000F980E9B0090DDE935
:104C9000081204A8FFF750FEDDE90401FCF7B2FF9B
:104CA000F3EE0B0AB4EE600AF1EE10FA00F0AB80FE
:104CB0009FED711A1020FDF729FB0446002800F033
:104CC0009E806FF01A0303F307036FF0190101F3DD
:104CD000070119441D314FF020534FF0105283FB50
:104CE000027C4FEACC0040EA577080EAE07E1EF07A
:104CF000804F18BF401018BF0131FCF783FFDFED74
:104D00005F0AB4EE600AF1EE10FA07D09FED5A1A6E
:104D10001020FDF7FBFA074600286BD04FF0005338
:104D20006FF01B02CDE90432304600924FF0205163
:104D30006FF01902FCF7E0FE4FF040536FF01B01DB
:104D4000CDE90831284600916FF019024FF020514B
:104D5000FCF7D2FE0A98DDE90E35002855D00B99F4
:104D600013B14A1B1E2A2BDDFCF74CFFDFED447A02
:104D7000B4EE670AF1EE10FA1ED0B0EEC07AB4EECF
:104D8000677AF1EE10FAB8BFB0EE677A30EE670AD4
:104D9000B5EE407AF1EE10FAB0EEC00A1FD0C0EEC8
:104DA000076ADFED387AF4EE676AF1EE10FA03D4A1
:104DB0003548FCF751FE0024204612B0BDE8F081D2
:104DC00012F11E0F21DB002A22D1C01832D080EA56
:104DD000E0739B0F18410B4403F30701C4E7DFEDB9
:104DE0002B7AB4EE670AF1EE10FAE1D5204612B044
:104DF000BDE8F0812648FCF72FFE3C468EE72548AB
:104E0000FCF72AFE5DE701245BE729461846ABE77D
:104E100012DD1341184468B180EAE073A3EBE0733C
:104E200003F0C042B2F1005F9ED05D000AD5401091
:104E3000013199E7014697E7691A40FA01F1C8186C
:104E40002946E8E780EAE073A3EBE07303F0C04291
:104E5000B2F1005F4FEAE07586D05A0007D4B3FA8A
:104E600083F2023A891A93406B40581B7CE75B0837
:104E70000131F9E7444801086F12033A0000344257
:104E8000555505410AD7A33BEC5001086042A20DDD
:104E9000D8500108C45001082DE9F04F784D2DED90
:104EA000048B0FCDBFB012AC0FC40FCD0FC495E86B
:104EB0000F009FED719B84E80F0001AF0120DFED33
:104EC000718A0B9016AC0DF1880BBA4654F8107C21
:104ED00037F000428DED0C9B3B4610D0C7F3C75214
:104EE000FF2A00F0A68052B1674901EA871141F01C
:104EF0000051002FB8BF49429C3A0C910D9254F8D2
:104F00000C8C38F000428DED0E9B11D0C8F3C752C7
:104F1000FF2A00F0A3805AB15B4901EA881141F0F1
:104F20000051B8F1000FB8BF49429C3A0E910F9260
:104F300054F8089C39F000428DED109B10D0C9F355
:104F4000C752FF2A7FD05AB14F4901EA891141F077
:104F50000051B9F1000FB8BF49429C3A109111922B
:104F6000DDE91001DDE90E328AE8030000921EA897
:104F7000DDE90C12FFF7E0FC1E9B53B383EAE371FB
:104F8000A1EBE3711F9A9C32FE2A25DC002A20DD6A
:104F900003F0004343EAC253C1F396110B4308EEFA
:104FA000103A54ED010AF4EE480AF1EE10FA07D077
:104FB000B0EE681AB0EE480A1020FDF7A7F980B1EC
:104FC00010345C4582D10B983FB0BDEC048BBDE83A
:104FD000F08F9FED2E8AE4E7002B27DD9FED2C8AD2
:104FE000DFE70B9010EE900AFBF736FACDE90801E7
:104FF00018EE100AFBF730FACDE906014846FBF738
:105000002BFACDE904014046FBF726FACDE902016F
:105010003846FBF721FA1F4ACDE9000180211EA87E
:105020000CF0A8FF1EA8FCF717FDC9E79FED1A8A30
:10503000B7E7002FACBF4FF000534FF060430C9325
:1050400062230D935BE7B9F1000FACBF4FF0005343
:105050004FF0604310936223119381E7B8F1000F82
:10506000ACBF4FF000534FF060430E9362230F9399
:105070005EE700BFAFF3008000000000000000000A
:10508000644801086F12033AC0FFFF1F00000000D0
:10509000FFFF7F7F00510108FFFF7FFF000000003E
:1050A00070B54FF020528CB06FF01903CDE90A2390
:1050B00000220023DDE90A01CDE904234FF000536B
:1050C0006FF01D02CDE90832CDE90101009206A87A
:1050D000DDE90412FFF730FC069B002B6FD083EA5A
:1050E000E371A1EBE371079A9C32FE2A4CDC002AA3
:1050F00065DD03F0004343EAC253C1F396110B434D
:1051000000EE103AF1EE047AB4EE670AF1EE10FA0E
:1051100008BF01263CD14FF020526FF01903CDE9B2
:105120000A239FED2F7BDDE90A018DED047B4FF013
:1051300000536FF01C02CDE90101CDE90832009265
:1051400006A8DDE90412FFF7F7FB069B4BB383EAE1
:10515000E371A1EBE371079A9C32FE2A32DC002A4C
:105160001FDD03F0004343EAC253C1F396110B4322
:1051700000EE103AF2EE047AB4EE670AF1EE10FA9D
:1051800011D130460CB070BD002B20DD9FED160A0A
:105190009FED161A0820F1EE040AFDF7B7F806464F
:1051A000B9E79FED130A9FED111AF2EE040A0820E9
:1051B000FDF7ACF83040C6B230460CB070BD9FED84
:1051C0000C0AE5E7002B05DD9FED070AEBE79FEDF5
:1051D000090ADDE79FED070AE5E700BFAFF30080AE
:1051E0000000000000000000FFFF7F7F17B7D138EC
:1051F00000000000FFFF7FFF82B030B587B0CDE92F
:10520000001204468E469446CBB10D9ABAB10C9961
:105210000E9DBEF1000F4FD0681883FB02315A0F6C
:1052200042EAC10200F11D0382EAE27103EB9173CD
:10523000ACEB03001E284FEA9171654607DDC4E917
:1052400000EC204607B0BDE8304002B070470A418C
:1052500010F11E0FC2F1000118DB002819D1BEEBBE
:10526000020232D082EAE271890F0A4148D082EA12
:10527000E270A0EBE270194400F0C043B3F1005FAC
:105280004FEAE27C3ED1C4E90021DAE7C4E9001329
:10529000D7E71EDD014111EB0E0116D081EAE17363
:1052A000A3EBE17303F0C042B2F1005F4FEAE1709B
:1052B00034D1C4E90015C4E703915B4202A904920A
:1052C00005950293FFF714FBBBE70023C4E9003305
:1052D000B7E7A3EB0C0C4EFA0CFEBEEB0202F4D0C7
:1052E00003F3070382EAE271A1EBE27101F0C0402F
:1052F000B0F1005F4FEAE27C1BD1C4E90023A0E7D4
:105300001146C0E7450020D4B0FA80F3023BC91A29
:1053100098408CEA0003A3EB0C02B4E7590017D4C1
:10532000B3FA83F2023AACEB020593404340191AF8
:10533000BFE74A0010D4B1FA81F2023A9B1A9140B9
:105340008CEA0101A1EB0C02D7E740080131E0E74C
:105350005B080CF10105E9E749080133F0E700BFFC
:105360002DE9F04F2DED028B4FF05842C1B082EA8B
:10537000E273A3EBE273C3F3961343F0404343F4A9
:10538000000307EE903AF9EE040AF4EE607AF1EECB
:1053900010FA00F073819FEDBD1A00EE103A08205C
:1053A000FCF7B4FF0746002800F054814FF040524C
:1053B00082EAE273A3EBE273C3F3961343F08043F4
:1053C00000EE103AF0EE080AB4EE600AF1EE10FAC0
:1053D00007D09FEDAE1A0820FCF798FF002800F0D8
:1053E0003481DFF8C4C2DFEDA98ADFF8C0820997F3
:1053F000BCE80F0011AC0FC4BCE80F000FC4BCE840
:105400000F000FC49CE8070084E8070014AD23AE2A
:1054100055F80C9C39F0004460D0C9F3C752FF2AFC
:1054200000F0BC80002A6DD055F808AC08EA891459
:10543000B9F1000F44F00054B8BF64423AF00043A1
:10544000A2F19C02514600F0B980C1F3C750FF2879
:105450004FD0002800F0B88008EA811343F00057CD
:105460000029B8BF7F42A0F19C0B2146CDF800B0C7
:105470003B4620A80892CDE90A7BFCF73DFB20992A
:10548000089A002900F0B3802198012800F3E680F3
:1054900081EAE17EAEEBE17E0028C0F2CE800EFA1A
:1054A00000F00029B8BF4042002800F0018180EAE6
:1054B000E071A1EBE071B1FA81FEAEF1020CBCF13A
:1054C000000F40F3D58001FA0CF1CEF1020C0CF381
:1054D000070C002880F28C80494289E055F808AC1E
:1054E0003AF0004351461BD0C1F3C750FF28224673
:1054F000AFD10029ACBF4FF000574FF060474FF0DD
:10550000620BB2E755F808AC3AF00043514607D0B9
:10551000C1F3C750FF2800F0B780002840F08B800F
:105520009FED5B8A55ED010AF4EE480AF1EE10FAA0
:1055300008D0B0EE681AB0EE480A0820FCF7E6FE84
:10554000044650B10C35AE427FF462AF099F384635
:1055500041B0BDEC028BBDE8F08F10EE900AFAF777
:105560007BFFCDE9060118EE100AFAF775FFCDE9C9
:1055700004015046FAF770FFCDE902014846FAF7F8
:105580006BFFCDE900018021424A0DEB01000CF0D8
:10559000F1FC20A8FCF760FA0994D3E755F808ACB1
:1055A000B9F1000FACBF4FF000544FF060443AF037
:1055B00000434FF0620251467FF447AF84EAE47340
:1055C000A3EBE4739C3208E0002CA9D084EAE473D6
:1055D000A3EBE4739C32002AA2DD04F0004444EA09
:1055E000C254C3F39613234308EE103A9AE78C464D
:1055F000CDE9227BCDE90C4220910B46DDE9220169
:10560000CDF884C0CDE90101CDF800C0DDE90C1270
:105610000FA8FFF7F1FDDDE90F42002C80D084EAEE
:10562000E473A3EBE4739C32FE2AD4DD002C1CDD72
:105630009FED198A76E714460EE710F11E0F1FDB67
:10564000C0F1000C2EFA0CF02BE707461348FCF7CC
:1056500003FAC6E61248FCF7FFF9A7E60029D4BF13
:1056600000200120C0F1004021E79FED0E8A59E79C
:105670001CBFCEF1020C21FA0CF128E7012795E6B8
:105680004FF0000C6146B3E7144632E717B7D13844
:105690000000000040510108FFFF7F7F34510108E6
:1056A00028510108FFFF7FFF94480108C0FFFF1F3A
:1056B000844601469CE700BF10B54FF060438EB0B2
:1056C0006FF01A014FF0405283FB024C4FEACC00BE
:1056D00040EA547080EAE07E1EF0804F18BF401010
:1056E00018BF0131FCF78EFAF9EE080AB4EE600A31
:1056F000F1EE10FA7AD09FED3E1A0820FCF706FE74
:10570000044600286ED06FF0190101F307014FF035
:105710005840FCF777FAFAEE040AB4EE600AF1EEAC
:1057200010FA06D09FED321A0820FCF7EFFD002892
:1057300052D06FF01B014FF00050FCF763FAF0EE0F
:10574000000AB4EE600AF1EE10FA06D09FED281AB6
:105750000820FCF7DBFD002838D06FF0190303F3B5
:1057600007034FF040506FF01A01CDE90C01DDE95D
:105770000C014FF060526FF01A0C09930892CDE9BA
:105780000101CDF800C0DDE908124FF0205306A852
:10579000FFF732FDDDE90601FCF734FAFBEE000A03
:1057A000B4EE600AF1EE10FA05D09FED111A082050
:1057B000FCF7ACFD10B120460EB010BD05900D48B1
:1057C000FCF74AF9059C20460EB010BD05900A482A
:1057D000FCF742F9059CC0E705900848FCF73CF946
:1057E000059CA6E70648FCF737F98CE701248AE711
:1057F00017B7D1388C510108805101087451010844
:1058000068510108000000002DE9F04F2DED068BD6
:10581000B422DBB074499FED75AADFED758ADFED28
:1058200075AADFF8E0A10DEB02000CF02AFD0120C3
:1058300001AB9FED6B9B32AC0DF5BE7B06AF0493C5
:1058400005902DE083EAE371A1EBE3710E9A9C329F
:10585000FE2A7BDC002A76DD03F0004343EAC253D4
:10586000C1F396110B4308EE103A54ED020AF4EE20
:10587000480AF1EE10FA10D0B0EE681AB0EE480AFD
:105880002020FCF743FD814638B9F0EEC87AF4EEEB
:105890006A7AF1EE10FA80F2828014345C4578D096
:1058A00054F8143C33F000428DED069B0ED0C3F348
:1058B000C752FF2A4FD04AB10AEA831141F0005182
:1058C000002BB8BF49429C3A39607A6054F8103CCA
:1058D00033F000428DED089B0ED0C3F3C752FF2A70
:1058E0004DD04AB10AEA831141F00051002BB8BFF4
:1058F00049429C3A0891099254F80C3C33F000421A
:105900008DED0A9B0ED0C3F3C752FF2A2DD04AB1AA
:105910000AEA831141F00051002BB8BF49429C3A7A
:105920000A910B92DDE90A01049B83E80300DDE99B
:105930000832009297E806000DA8FFF75DFC0D9B6A
:10594000002B7FF47FAFB0EE4A8A8EE7002B41DD5B
:105950009FED298A89E7002BACBF4FF000534FF031
:1059600060433B6062237B60B0E7002BACBF4FF02D
:1059700000534FF060430A9362230B93D2E7002B4E
:10598000ACBF4FF000534FF060430893622309937C
:10599000B2E705985BB0BDEC068BBDE8F08F54F81C
:1059A000043C059310EE900AFAF756FDCDE902018A
:1059B00018EE100AFAF750FD059B104ACDE90001D8
:1059C00080210DA80CF0D6FA0DA8FCF745F8CDF80B
:1059D000149062E79FED0A8A47E700BFAFF30080AB
:1059E0000000000000000000D04801080000000096
:1059F0006F12033B95BFD633FFFF7F7F9C51010899
:105A0000FFFF7FFFC0FFFF1F2DE9F04F744D2DED0D
:105A1000048B0FCDBBB012AC0FC495E80F009FED07
:105A20006E9B84E80F0001AF01200DF1780B0B9005
:105A3000BA4654F8107C37F000428DED0C9B3B4683
:105A400010D0C7F3C752FF2A00F0A38052B16549B6
:105A500001EA871141F00051002FB8BF49429C3A3A
:105A60000C910D9254F80C8C38F000428DED0E9B89
:105A700011D0C8F3C752FF2A00F0A0805AB159498B
:105A800001EA881141F00051B8F1000FB8BF494256
:105A90009C3A0E910F9254F8089C39F000428DED1B
:105AA000109B10D0C9F3C752FF2A7CD05AB14D4980
:105AB00001EA891141F00051B9F1000FB8BF494224
:105AC0009C3A10911192DDE91001DDE90E328AE86D
:105AD000030000921AA8DDE90C12FFF78DFB1A9B58
